:020000040800F2
:1000000030460020AD020008CF6C0008C969000826
:10001000CD6C0008A11C00083D7B0008000000001A
:10002000000000000000000000000000156F000844
:100030008D21000800000000D16C0008176F000837
:10004000C7020008C7020008C7020008C70200086C
:10005000C7020008C7020008C7020008C70200085C
:10006000C7020008C7020008C7020008A51C000854
:10007000C7020008C7020008C7020008C70200083C
:10008000C7020008C7020008951C0008C702000844
:10009000C7020008C7020008C7020008C70200081C
:1000A000C7020008C7020008C7020008C70200080C
:1000B000C7020008B5700008C1700008C702000838
:1000C000C7020008C7020008C7020008C7020008EC
:1000D000C7020008317B0008C7020008C7020008F9
:1000E000C7020008C702000800000000C70200089D
:1000F000C7020008C7020008C7020008C7020008BC
:10010000C7020008C7020008C7020008C7020008AB
:10011000C7020008C7020008C7020008C70200089B
:10012000C7020008C7020008C7020008C70200088B
:10013000C7020008C7020008C7020008C70200087B
:1001400000000000000000000000000000000000AF
:10015000C7020008C7020008C7020008C70200085B
:10016000C7020008C7020008C7020008C70200084B
:10017000C7020008C7020008C7020008000000000C
:10018000C7020008C7020008C7020008C70200082B
:10019000C7020008C7020008C7020008C70200081B
:1001A000C7020008C7020008C7020008C70200080B
:1001B000C7020008C7020008C7020008C7020008FB
:1001C000C7020008C7020008C7020008C7020008EB
:1001D000C7020008C7020008C7020008C7020008DB
:1001E000C7020008C7020008C7020008C7020008CB
:1001F000C7020008C7020008C7020008C7020008BB
:10020000C7020008C7020008C7020008C7020008AA
:10021000C7020008C7020008C7020008C70200089A
:10022000C7020008C7020008C7020008000000005B
:10023000C7020008C702000800000000C70200084B
:10024000C7020008C7020008C7020008C70200086A
:10025000C7020008C7020008C7020008C70200085A
:10026000C7020008C7020008C7020008C70200084A
:10027000C7020008C7020008C7020008000000000B
:10028000C7020008C7020008C702000800000000FB
:1002900000000000C7020008DFF80CD000F048FAA8
:1002A00000480047D98400083046002006488047AF
:1002B00006480047FEE7FEE7FEE7FEE7FEE7FEE74B
:1002C000FEE7FEE7FEE7FEE7D16F000899020008AF
:1002D0002DE9F05F0546002092469B46884606467B
:1002E000814640241BE0284641464746224600F00E
:1002F00057F853465A46C01A914110D31146184632
:10030000224600F03EF82D1A67EB01084F462246C0
:100310000120002100F035F817EB00094E41201EA6
:10032000A4F10104DFDC484631462A464346BDE8D5
:10033000F09FD2B201E000F8012B491EFBD27047BA
:100340000022F6E710B513460A4604461946FFF7A1
:10035000F0FF204610BD30B50B460146002020229C
:10036000012409E021FA02F59D4205D303FA02F5C2
:10037000491B04FA02F52844151EA2F10102F1DC22
:1003800030BD202A04DB203A00FA02F10020704739
:100390009140C2F1200320FA03F3194390407047C3
:1003A000202A04DB203A21FA02F00021704721FACA
:1003B00002F3D040C2F12002914008431946704731
:1003C0002DE9FE4F804681EA0300C00F0C460090E5
:1003D00021F0004123F00045B8EB0200A94105D20D
:1003E0004046214690461C460B46024623F00040FC
:1003F000104347D0270DC7F30A00C3F30A510290F8
:10040000401A019040286BDAC3F3130040F4801BBC
:100410000098924620B10023D2EB030A63EB0B0B4A
:1004200001985946C0F140025046FFF7AAFF064620
:100430000D4650465946019A00F08CF910EB080021
:100440006141002487EA115284EAE7731A4340D0DD
:10045000009A62B3019A012A4FEA075215DC001B89
:1004600061EB02014FF0004202EA0752CDE900427F
:10047000001C41F5801132462B4600F08CF903B088
:10048000BDE8F08F40462146F9E7001B61EB020111
:10049000001C41F5801300185B412018A2F50017DD
:1004A00047EB030140EAD570B6196D4111E06D08C4
:1004B0004FEA360645EAC0754FEA0752001B61EB6A
:1004C0000201001C41F5801149084FEA3000001973
:1004D000514132462B4603B0BDE8F04F00F04CB915
:1004E0000098012240000023D0EB020263EBE0738E
:1004F000009821464FEAE074B8EB000061EB04017C
:10050000E9E783F000435BE781F0004158E72DE91C
:10051000FE4F81EA030404F0004421F000410094FE
:100520004FF0000B23F0004350EA01045ED052EA82
:1005300003045BD0C3F30A54C1F30A552C44A4F25C
:10054000F3340194A0FB0254C1F3130141F4801170
:10055000C3F3130343F4801301FB024400FB034E77
:10056000840A970A44EA815447EA8357A4FB076840
:1005700002958D0A05FB07854FEA932C04FB0C546A
:100580002705029D4FEA065847EA1637B5EB0805DE
:100590006EEB070C870E920E47EA811742EA831230
:1005A000A7FB0201B6EB0B0164EB00042B0D43EA41
:1005B0000C335E1844EB1C50DA465146E7FB02014F
:1005C000C5F313044FEA0B3343EA14534FEA0432E2
:1005D000019C43EA0603A4F10C040294009CCDE9BB
:1005E00000B400F0D8F803B0BDE8F08F0020014659
:1005F000F9E72DE9F04D81EA030404F0004B21F006
:10060000004514464FF0000A23F0004150EA05026D
:1006100020D054EA01021DD0C5F30A570246C5F3A3
:100620001303C1F31300C1F30A5640F4801543F4D9
:100630008013A7EB0608101BD64608F2FD3873EBB3
:10064000050002D308F1010801E092185B41B8F1FE
:10065000000F03DA00200146BDE8F08D00204FF4C2
:100660008011064684460EE0171B73EB050705D381
:10067000121B63EB050306434CEA010C49084FEAE1
:10068000300092185B4150EA0107EDD152EA0300B5
:1006900012D082EA040083EA0501084305D0101B4A
:1006A000AB4106D20122002306E000224FF00043B6
:1006B00002E06FF0010253101AEB06004CEB0851F8
:1006C00010EB0A0041EB0B01BDE8F04D00F054B80F
:1006D000C1F30A52C1F3130140F2FF3341F4801118
:1006E0009A4202DA00200146704740F233439A42B0
:1006F000A2F2334202DC5242FFF752BEFFF741BE84
:1007000030B5041E71F1000404DB4FF00044404298
:1007100064EB0101141E73F1000405DB1C464FF06D
:100720000043524263EB0403994208BF904230BD3C
:10073000064C074D06E0E06840F0010394E807002E
:1007400098471034AC42F6D3FFF7AAFDDCB6010897
:100750000CB70108202A06DBCB17203A41FA02F039
:1007600043EAE07306E041FA02F3D040C2F120020E
:10077000914008431946704710B5141E73F10004E8
:1007800008DA401C41F1000192185B411A4301D183
:1007900020F0010010BD2DE9F04D92469B4611B1AD
:1007A000B1FA81F202E0B0FA80F220329046FFF70F
:1007B000E8FD04460F4640EA0A0041EA0B015346B1
:1007C0005A46084313D0114653EA010019D0C8F124
:1007D00040025046FFF7E4FD05460E465046594696
:1007E0004246FFF7CEFD084305D0012004E0204635
:1007F0003946BDE8F08D0020054346EAE0762C43FB
:1008000037430A986305E40AA0EB08000022FD0ABA
:1008100044EA47540A3002D500200146E9E70105C1
:1008200010196941DDE9084500196941BDE8F04D3D
:10083000A2E70000B0B5002921D0002302EB430C51
:1008400032F813E0BCF802C002332EF0030E2CF095
:10085000030C50F80E4050F80C508B4240F80E50EC
:1008600000EB0E0540F80C4000EB0C04D5F804C07A
:10087000D4F804E0C5F804E0C4F804C0DED3B0BD89
:100880002DE9F041048816460746012A98460D4690
:100890000CD1E4B3281D214690ED000AB1EE400AC8
:1008A000013980ED000A00F10800F5D1FF2C0CDDC4
:1008B000B4F5806F10DBB4F5805F22D0B4F5006F23
:1008C00011D0B4F5806F17D021E03F2C10DC102C34
:1008D00012D0202C07D01AE0B4F5807F03D0B4F5F5
:1008E000007F0ED013E03846294600F0F7F80EE0FE
:1008F000402C06D0802C0AD13846294600F02EF82C
:1009000005E07A6801232846214600F0D5FAB8F1BF
:10091000000F04D0B9892846BA68FFF78BFF012E73
:100920001AD100EE104A002CB8EE400A14D0B7EEEF
:10093000001A81EE000A00BF95ED001A95ED012A1C
:1009400020EE011A013C20EE422A85ED001A85EDC9
:10095000012A05F10805EFD1BDE8F0812DE9F04746
:100960002DED068B038880460020D8F80420B0EBDC
:10097000D30F084601EB830A4FEA530900F09E802B
:10098000D9080AEB890C00EB890E4C42002700BF06
:10099000C3190AEB070593ED000A95ED004A30EE06
:1009A000048A0EEB07010CEB070630EE440A93EDC8
:1009B000011A93ED022A93ED033A95ED015A95ED54
:1009C000026A95ED037AD1ED000AD1ED011AD1ED5D
:1009D000022AD1ED033AD6ED004AD6ED015AD6ED02
:1009E000026AD6ED037A31EE059A83ED008A32EE83
:1009F00006AA013433EE078A83ED019A30EEA49AF9
:100A000083ED02AA31EEA5AA83ED038A32EEA68A0F
:100A100033EEA74A81ED009A31EE451A81ED01AA25
:100A200081ED028A02EB070381ED034A34EEE05ABE
:100A3000D3ED000A35EEE14A07F1100761EE201A06
:100A4000D3ED014A21EE241A40EE641A65EE245AD1
:100A500064EE244A00EE201A44EE605A45EE204A25
:100A600032EE460A85ED001A33EE471AC5ED011A3B
:100A700036EEE22AC6ED005A37EEE33AC6ED014AF9
:100A800093ED034A93ED026A21EE045A21EE061A11
:100A900022EE047A63EE040A00EE065A00EE441ACF
:100AA00003EE467A42EE060A85ED025A85ED031AF8
:100AB00086ED027AC6ED030A7FF46AAF0223494647
:100AC00000F0FAF9D8F80420022350464946BDEC5C
:100AD000068BBDE8F04700F0EFB900002DE9F04FBC
:100AE00081B02DED0C8B90B08446008891ED000A0A
:100AF000420801EB820404EB820591ED011A95EDA9
:100B0000002A95ED013A30EE024A0F4630EE420AD5
:100B100005EB820631EE032A910031EE431A0F9164
:100B200094ED003A94ED015A30EE056A810871EEB9
:100B3000430A009174EE432A6FF0010172EE453AC8
:100B400001EB900A30EE450AD00034EE034A6FF014
:100B5000070832EE052A0E9031EE031A02EB42012D
:100B600096ED007AD6ED011A36EE616A08EB0210B6
:100B700070EE870A4FEA810972EEC72A0C9073EE75
:100B8000E13A059730EE210A08EB810334EE073A8B
:100B90006FF0030132EE212A029431EE471A01EB85
:100BA000C20E87ED003A4FF0000B87ED012A0027B7
:100BB00084ED006AA7EB5A0AC4ED010A01EB820436
:100BC000C5ED002A0020C5ED013A86ED000A86ED4C
:100BD000011ADCF8041003950196CDF810C00691B7
:100BE0000D90C1E0C518CDF8249000EB0409CDF8B4
:100BF0001CA099ED006A95ED017A76EE070A00EBEC
:100C00000E01D1ED002AF246DDF830E070EEA23A96
:100C1000089400EB0E0436EE476AD4ED015A73EEE9
:100C2000A53A0F9859ED011AD5ED004A71EEA46A64
:100C3000083051ED017A94ED008AC9ED003A71EE69
:100C4000E41A51ED013A76EEA33AAEF1080E94EDB6
:100C5000007A32EEE59AAAF1080A33EE877A083B69
:100C600076EE673A31EE89BA09ED017A33EE887A89
:100C7000DDF82490D6ED023AD6ED034A25EE24AAFB
:100C80000F9025EE235A0E9827EE24CA08302BEE3B
:100C900024DA0E9004EE23AA0D9804EE645A18305C
:100CA00030EEE24A0D9076EEE70A82ED02AA0BEEF4
:100CB00063CA82ED035A07EE23DA09F1080934EE1C
:100CC000654A70EEC80A81ED00CA01ED01DA97EDC0
:100CD000045A97ED057A63EE072A0B9F23EE053A37
:100CE000083760EE873A64EE074A42EE052A02EEC4
:100CF000473A54EE453A40EEC54ACCED022A38EE6A
:100D0000674A8CED033AC5ED013A39EE615AC5EDFB
:100D1000004A9BED062A21EE027A34EE464A9BED0C
:100D2000073A21EE031ADDF828B000EE437ACDF839
:100D300030E024EE036AD64625EE033ADDF81CA027
:100D400000EE021A0BF1100B05EE426A0AF1010ADD
:100D500004EE023A88ED021A88ED037A84ED016A06
:100D600084ED003A089C083C0598BAF1000F0E9AF1
:100D700000EB070100EB020C0F9A91ED020A9CEDCB
:100D8000022A30EE026A024430EE420A00EB090801
:100D900091ED031A9CED033A92ED032A31EE037AAA
:100DA000069D31EE431A0B9730EE023ACDF828B08B
:100DB000D2ED020AD8ED032A33EE624A05EB0706AC
:100DC00036EE603A05EB0B0736EE206AD8ED021AD4
:100DD00031EE605A36EE216A77EE423A30EE420A40
:100DE00081ED026A31EE201A92ED036A37EE066A4F
:100DF00098ED037A35EE215A36EE076A33EE612A12
:100E000033EEE23A30EE220A81ED036A31EE611AE6
:100E10000D9905EB010B7FF4E5AE96ED026A96EDB8
:100E2000037A65EE070A009D25EE065A042329463B
:100E300044EE060A04EE475AC2ED020A82ED035A56
:100E400097ED044A97ED055A23EE056A069A23EEBC
:100E5000043A02EE046A02EE453A8CED026A8CED29
:100E6000033A9BED062A9BED073A21EE034A21EE59
:100E7000021A00EE024A00EE431A88ED024A88ED9B
:100E8000031A00F019F8049C0423626829460298AA
:100E900000F012F8626804230398294600F00CF869
:100EA000626804230198294610B0BDEC0C8B01B098
:100EB000BDE8F04FAFF300802DE9F04F81B02DED8C
:100EC000108B96B0CDE90332019004309FED020AF9
:100ED0008C460290149101E0F304353F4FEADC08A0
:100EE0004FEAC80ACDF81C80AAEBDC00C00008EB72
:100EF000480E139008EB88024FEACC074FEA0E1415
:100F0000D000029A4FEA481315904FEA08160D9345
:100F10004FEACE054FF0000BCDE90B5602EB03096B
:100F2000159812ED011A19ED013A02EB0A0831EE9B
:100F3000035A02EB000E0B9818ED016A31EE431ACA
:100F400091191EED013A131976EE031A564636EE44
:100F5000433A02EB000A139851ED012A13ED016A9E
:100F6000104472EE863A5AED014A32EEC66AE34404
:100F700050ED012A74EEA25A3D4674EEE22A75EE57
:100F8000634A35EE235A71EEA53A92ED002A99EDA7
:100F9000004A98ED007ADEED000AD1ED006A71EEAC
:100FA000E51A75EE235A35EE635A72EE043A32EEC4
:100FB000442A37EE204A37EE607AD3ED000A76EE07
:100FC000A07A76EEE00ADAED006A90ED008A36EE5D
:100FD000889A42ED015A76EEC86A09ED015A33EE5D
:100FE000A78A34EE09AA73EEE73A34EE494A78EE5E
:100FF0000A7A38EE4A8A33EE62AA34EE849AC2ED57
:10100000007A34EEC44A89ED008A73EEE14A3A442C
:1010100071EEA31A01ED019A33EE223A6AEE002A2C
:10102000C1ED004A77EE663A03ED014A37EE267AC3
:10103000C3ED001A71EE626A149931EE221A0D9B0B
:1010400023EE003A8B4563EE802A27EE007A76EE97
:10105000433A36EE033A32EE625A30EE876A32EEA7
:10106000222A30EEC77A71EE060A32EE434A31EE9A
:10107000461A33EE022A48ED010A36EE873A88ED29
:10108000004A00ED011A35EE631A80ED002A36EEB3
:10109000C72A0EED013A33EE853A8EED001A0AEDBD
:1010A000012A8AED003AB2460C9EFFF437AFBCF13C
:1010B000400FC0F08B810EA880E8901403980024A4
:1010C00080B2019E012506900798C0EBC000C000C9
:1010D000059000BF06980444049B03EBC4010A94E6
:1010E00091ED000A03EB04128DED130A92ED000A54
:1010F00004EB44028DED120A03EB441108964FEA0B
:10110000C20A099503EBC20091ED004A04EB840189
:101110004FEA021B03EB021290ED003AC80003EB0A
:10112000C10192ED006AC4EBC4024FEAC40C91ED18
:10113000005AD10003EBC20292ED007A0CF10402D6
:101140004FEA041E1A44D2ED000A0EF104020430E4
:101150001A441844D2ED001A0AF10402D0ED004AF4
:101160000BF104004FEA44191A441844D2ED002A46
:1011700009F10402D0ED005A081D1A441844D2EDBA
:10118000003AD0ED006AB4462B460D9D9FED921AB1
:10119000DDE90B76DDF8148010980CEB05010CEB03
:1011A00000021598DCED027A91ED028A60440E9CF3
:1011B00037EE88BA0CEB060B77EEC87A0CEB040915
:1011C00092ED028A90ED029A38EE09CA0CEB070EF6
:1011D00038EE49AA0CEB080A9BED028A99ED029AB7
:1011E00038EE09DA38EE499A9EED028A9AED02EA63
:1011F00038EE0EFA7BEE0D8A38EE4EEA7CEE0F9A50
:101200003BEE4DBA3CEE4FCA38EEA98A38EEE9DA29
:101210009CED03FAD1ED038A7FEE289A3FEE68FA3F
:10122000D2ED038AD0ED03AA78EEAABA78EEEA8A64
:10123000DBED03AAD9ED03CA7AEEACDA7AEEECAABA
:10124000DEED03CADAED03EA7CEEAEFA8CED028A3B
:101250007CEEEECA79EEEDEA3BEEEF0A79EEAD9A5E
:101260007BEEAFBA7BEE00DA3BEE400A39EEEBBA2A
:101270009DED122A79EEAB9A7EEECCBA63EE8BFA34
:101280003CEE2ECACCED039A24EE0BBA62EE2DEAA8
:1012900044EE0DFA03EECDBA22EE2BDA41EEABEAC4
:1012A000C1ED02FA66EE00BA81ED03BA01EEEDDAA5
:1012B00066EE0CDACBED02EA45EE8CBA3AEE4ECA97
:1012C0008BED03DA45EEC0DA3AEE0E0AC9ED02BA4A
:1012D0002CEE01AA38EEECCAC9ED03DA38EEACEA1E
:1012E00077EECA8A77EE8A7A20EE010A2CEE01AAFE
:1012F0002EEE01CA39EE40EA39EE000A3FEE4A9A74
:101300007AEE8CCA3FEE0AAA3AEECCCA37EEACFAB5
:1013100077EEEC7A78EE8CAA38EECCCA7AEE408A78
:1013200030EE0A0A39EE4EAA9DED132A26EE808A87
:1013300027EE000A60EEA8CA3EEE099A22EE28EADD
:1013400007EE278A24EE8ABA06EEE70A65EE0A7AE5
:1013500042EE0FCA00EECFEA05EE2ABA44EEEA7A70
:10136000C2ED02CA22EE89AA82ED03EA23EE099AAF
:101370008AED028A8AED030A80ED02BA03EE0CAA16
:10138000C0ED037A02EECC9A11980344149883427C
:101390000F9884448EED02AA8EED039AFFF4FCAE02
:1013A000099D01350798089E854206F108060A9CAA
:1013B000FFF490AE11983F2803984FEAC000DDF883
:1013C0001CC09FED050A03903FF688AD16B0BDEC3A
:1013D000108B01B0BDE8F08FF304353FC8B14FF476
:1013E000007101804FF4806101824FF4E0718181CE
:1013F00042F65C114BF65C02C0F60101C0F6000239
:10140000C0E9011243F65C11C0F601014161002000
:1014100000E0FF2040B27047C8B14FF48061018006
:101420004FF4006101824FF4E16181814BF6DC31C0
:1014300048F2F462C0F60001C0F60002C0E90112F1
:1014400044F65C11C0F601014161002000E0FF207C
:1014500040B27047B8B1802101804FF480710182A1
:10146000D02181814DF6DC3149F20452C0F60001F1
:10147000C0F60002C0E9011246F65C11C0F6010197
:101480004161002000E0FF2040B27047B0B1102160
:10149000018020210182142181814DF6DC7149F205
:1014A000A462C0F60001C0F60002C0E9011246F6CF
:1014B0005C51C0F601014161002000E0FF2040B214
:1014C0007047C8B14FF4006101804FF48051018230
:1014D0004FF46E6181814EF25C0149F2CC62C0F63C
:1014E0000001C0F60002C0E9011246F6DC51C0F668
:1014F00001014161002000E0FF2040B27047C8B107
:101500004FF4807101804FF4007101824FF4DC715F
:10151000818142F25C014BF28C42C0F60101C0F6BF
:101520000002C0E901124AF6DC51C0F60101416136
:10153000002000E0FF2040B27047B0B120210180C0
:10154000402101823021818142F65C014BF2FC7224
:10155000C0F60101C0F60002C0E901124BF2DC51F5
:10156000C0F601014161002000E0FF2040B2704759
:10157000F0B581B00446008A002B4FEA50001546B2
:1015800020800F460ED0204639462A461E4600F0DF
:1015900057F8012320462946324601B0BDE8F04005
:1015A000FFF76EB90022012320463946FFF768F99C
:1015B000204639462A4601B0BDE8F04000F096B812
:1015C000B1F5007F0DDBB1F5006F16DAB1F5007FE4
:1015D0001ED0B1F5806F2AD141F2DD31C0F6000195
:1015E0000847202919D0402924D0B1F5807F1ED189
:1015F00041F25541C0F600010847B1F5805F11D0B6
:10160000B1F5006F13D141F21941C0F6000108474E
:1016100041F2FF41C0F60001084741F28D41C0F69A
:101620000001084741F2C341C0F6000108474FF0EE
:10163000FF30704741F23B51C0F6000108470000FF
:1016400091ED000A91ED011A30EE012A038830EE87
:10165000411AB6EE000AD0F814C0581E22EE002A35
:1016600021EE001A82ED002A82ED011A08BF7047B0
:1016700080B501EBC00E01F108000CF10801083241
:10168000C3F1010C0EF10403BDE8804013ED011A13
:1016900093ED002A90ED003A90ED014A33EE417A45
:1016A000083031EE031A1CF1010C34EE423AA3F17A
:1016B000080391ED005A91ED016A32EE042A01F11E
:1016C000080107EE451A07EE063A02EE461A05EE45
:1016D000423A21EE001A23EE002A82ED001A82ED32
:1016E000012A02F10802D1D17047000010B591ED36
:1016F000000A91ED011A30EE000AB0F800E031EE78
:10170000011A406901EBCE0400F1080C30EE012A09
:10171000083130EE411AB6EE000A02F10803201F2C
:1017200022EE002A21EE001A82ED002A82ED011A33
:10173000CEF1010210ED011A90ED002A91ED003A70
:1017400091ED014A31EE437A083131EE031A01324C
:1017500034EE423AA0F108009CED005A9CED016A7B
:1017600032EE042A0CF1080C07EE051A07EE063AD1
:1017700002EE061A05EE423A21EE001A23EE002A86
:1017800083ED001A83ED012A03F10803D2D110BDC5
:1017900010B5264C00221021204602F043FD002205
:1017A0002046202102F03EFD00222046802102F04A
:1017B00039FD052002F00CFC01222046802102F0B8
:1017C00031FD052002F004FC00222046802102F0B9
:1017D00029FD00222046102102F024FD052002F000
:1017E000F7FB01222046102102F01CFD052002F02B
:1017F000EFFB00222046102102F014FD00222046BB
:10180000202102F00FFD052002F0E2FB012220461C
:10181000202102F007FD052002F0DAFB002220461D
:10182000BDE81040202102F0FDBC0000000002587D
:101830009FED2F2B9FED301B2DE9F04120EE022B69
:101840002F4C0025064682EE010BBCEEC00B10EEBD
:10185000107A00BF27FA05F0C00701D0012200E08E
:1018600000222046402102F0DDFC0122204610210A
:1018700002F0D8FC052002F0ABFB0022204610212C
:1018800002F0D0FC052002F0A3FB6D1CEDB2202D70
:10189000E0D3002526FA05F0C00701D0012200E0C0
:1018A00000222046402102F0BDFC012220461021EA
:1018B00002F0B8FC052002F08BFB0022204610212C
:1018C00002F0B0FC052002F083FB6D1CEDB2082D88
:1018D000E0D301222046202102F0A4FC052002F0E2
:1018E00077FB2046BDE8F0410022202102F09ABC9F
:1018F0000000E0FFFFFFEF410000000065CD9D41CB
:101900000000025870B53A4905460068884202D086
:10191000384A904202D1D1F8080302E03648D0F8A4
:10192000080310F4403F11D003F044FE04466868F9
:10193000B0F5803F06D0B0F5003F03D0B0F5403F92
:1019400026D101E0000C17E0A40821E04FF40020AC
:1019500002F062FF044668688103890B18D1811484
:101960000C2915D2DFE801F0140606060606060B60
:101970000D0F1113800C4000B4FBF0F408E02409B3
:1019800006E0640904E0A40902E0E40900E0240A96
:1019900002F04EFC41F20301884208D81748844205
:1019A0002868816813D821F48071816070BD144962
:1019B0006008884204D82868816821F44071F4E7FF
:1019C0001049884206D82868816821F4407141F4A2
:1019D0008071EAE70C4988422868816804D821F4BC
:1019E000407141F40071E0E741F44071DDE700002F
:1019F000002002400021024000600258002D310109
:101A0000105E5F0020BCBE0040787D012DE9F041F2
:101A10000027044600680D4604F0DBFF06462068F8
:101A200004F0D3FF30435DD020682F4EC168890198
:101A300005D5617D012902D1217D01290BD0022D1F
:101A40001DD0206804F0C5FFB8B120688168C1F3DB
:101A5000400169B111E02549012502E08F4232D2EF
:101A60007F1C0268D2435206F8D440210160E8E7A7
:101A70008168314041F010018160012D11D0206852
:101A800004F0A3FF48B120688168C1F3400121B987
:101A90008168314041F020018160022D08D0032D82
:101AA00004D0042502F0CAFB064617E00C25F9E72E
:101AB0000825F7E702F0C2FB801B05280ED9206835
:101AC000806828420AD0606D40F010006065A06D0B
:101AD00040F00100A0650120BDE8F0812068806829
:101AE0002842E7D10020F7E7C0FFFF7F00DC0C00B1
:101AF00010B5846B616D11F0500F06D0616DC90691
:101B000025D5204600F038FD10BD606D40F4007012
:101B1000606520680168090707D504F05EFF90B191
:101B20002068C068800403D50DE0C06880070AD132
:101B3000606D20F480706065606DC00403D4606DDA
:101B400040F001006065204600F014FD10BDE16C1E
:101B5000C96CBDE81040084710B5806B416D41F07D
:101B600040014165816D41F00401816500F004FD93
:101B700010BD10B5806B00F0FEFC10BD70B50446C2
:101B8000006881688268C1F3400112F0010F28D01B
:101B900039BB816801F00D01012914D18168124A15
:101BA0001140891C816021680320086002F046FB17
:101BB000054612E002F042FB401B02280DD92068C6
:101BC0008068C00709D0606D40F010006065A06DAE
:101BD00040F00100A065012070BD20688068C0074A
:101BE000E8D1002070BD0000C0FFFF7F70B5044643
:101BF0000068816811F0010F40D18168204A1142CC
:101C00002DD18168D5432940491C816002F016FB23
:101C10001C49064620681C4B884201D0984201D1DD
:101C20001A4A00E01A4A9268984202F01F0200D055
:101C3000014681421DD0E2B120E0816811F0010F20
:101C400003D181682940491C816002F0F7FA801BAA
:101C500002280ED920680068C043C00709D0606D13
:101C600040F010006065A06D40F00100A06501200B
:101C700070BD20680168C943C907DED1002070BD6E
:101C80003F0000800020024000210240002302406B
:101C900000630258014800F071BC00002840002099
:101CA000FEE700001F4810B500F0B8FF1E480122F3
:101CB000022102F0B7FA1D4800F01F011031BFF3F6
:101CC0004F8F1B4A1060203020390029FADCBFF307
:101CD0004F8FBFF36F8F15491648184B91ED000ACF
:101CE00080ED000A4A6814494260B8EE400A08884C
:101CF000421C03EB800390B283ED000AB0F5806FC5
:101D0000088005D10E4804F0C1F80EA005F018FFB8
:101D100006490422034800F0FDFEBDE810400C48CF
:101D200001F0AEBA28400020000002580000003840
:101D30005CEF00E0080000200200002028000020E6
:101D4000044100206164632066696E6973680A005B
:101D50008C400020294A016891423AD0274A183223
:101D6000914236D0254A3032914232D0234A48320D
:101D700091422ED0214A603291422AD01F4A7832B5
:101D8000914226D01D4A9032914222D01B4AA8325D
:101D900091421ED01A4A91421BD0194A18329142E0
:101DA00017D0174A3032914213D0154A4832914227
:101DB0000FD0134A603291420BD0114A78329142CF
:101DC00007D00F4A9032914203D00D4AA832914277
:101DD00011D1CAB21823103AB2FBF3F26FF3090122
:101DE000032A02F00703074AD25CC26500D9091D25
:101DF00081650846704721F0FF01F9E710000240B5
:101E000010040240B486000830B5224A012301685C
:101E10009142CAB21BD01F4C1434A14217D01D4CA2
:101E20002834A14213D01B4C3C34A1420FD0194C92
:101E30005034A1420BD0174C6434A14207D0154C4A
:101E40007834A14203D0134C8C34A1420CD114211C
:101E5000114C083AB2FBF1F10F4A803201F01F0534
:101E600004EB8101AB4010E00C4D1824103A0D44F6
:101E7000B2FBF4F1A82D00D80831094A01F01F0483
:101E800002EB8101064AA3408032603080E80E00F8
:101E900030BD00000854025800580258F0FBFDBF46
:101EA0000008024010B50279531E072B2DD8174C9D
:101EB0000168A1421BD0154C1434A14217D0134C19
:101EC0002834A14213D0114C3C34A1420FD00F4C06
:101ED0005034A1420BD00D4C6434A14207D00B4CBE
:101EE0007834A14203D0094C8C34A14203D1084973
:101EF000074C443102E00749064C443104EB8202AE
:101F0000C0E91B2101219940416710BD08540258C6
:101F1000FC580258FC08024010B583694FF0C074A9
:101F2000826A0146002053B1B3F5005F15D072B14B
:101F3000012A0CD0022A0AD0032A09D104E01AB1DE
:101F4000012A06D0022A03D1C96AC90100D501209D
:101F500010BDC96AA142FAD010BD002AF7D0012AEB
:101F6000F2D0022AF3D0032AF3D010BD2DE9F04FAE
:101F7000804E804FDFF8FC911836DFF8F8A1483723
:101F80000468856D0AF1300ADFF8ECB14C45DFF8E2
:101F9000ECC1DFF8ECE16DD0B4426BD0544569D0B0
:101FA000BC4267D0DFF8D081A8F11808444561D061
:101FB0005C455FD064455DD074455BD0DFF8C4817B
:101FC000444557D0DFF8BC8108F11808444551D08A
:101FD000DFF8B08108F1300844454BD0DFF8A48128
:101FE00008F14808444545D0DFF8988108F16008B9
:101FF00044453FD0DFF88C8108F17808444539D05A
:10200000DFF8808108F19008444533D0DFF874810F
:1020100008F1A80844452DD0DFF86C81444529D04B
:10202000DFF8648108F11408444523D0DFF85881B3
:1020300008F1280844451DD0DFF84C8108F13C0820
:10204000444517D0DFF8408108F15008444511D0CD
:10205000DFF8348108F1640844450BD0DFF82881AB
:1020600008F17808444505D0DFF81C8108F18C0898
:10207000444509D1D0E91948C4F80480C46E1CB1A4
:10208000D0E91C48C4F8048004684C452ED0B44202
:102090002CD054452AD0BC4228D0374E183EB442EA
:1020A00024D05C4522D0644520D074451ED0354EE6
:1020B000B4421BD0334E1836B44217D0314E3036AE
:1020C000B44213D02F4E4836B4420FD02D4E603656
:1020D000B4420BD02B4E7836B44207D0294E9036FE
:1020E000B44203D0274EA836B44215D190F85C60B4
:1020F0003F2406F01F06B440AC600468256825F450
:10210000802525602EE09A600068C160BDE8F08FF0
:1021100099600068C260F9E71B4EB4421BD01A4EAA
:102120001436B44217D0184E2836B44213D0164E87
:102130003C36B4420FD0144E5036B4420BD0124E3F
:102140006436B44207D0104E7836B44203D00E4EF7
:102150008C36B442DAD190F85C60012406F01F0698
:10216000B4406C60046863608368402B0368CFD11F
:10217000C9E700001000024088000240A0000240B1
:10218000B80002401004024008540258704772B66A
:10219000FEE7704770477047704770472DE9F84F6A
:1021A0004FF0000B0446E54E0D46CDF800B05F46FB
:1021B00090F85000DFF888A3012808D04FF00109FB
:1021C00084F85090206804F004FC18B168E1022003
:1021D000BDE8F88F21682868CA69030328D090FAFF
:1021E000A0F0B0FA80F000BF00F01F0309FA03F07E
:1021F0000243CA61D5E900124FF00C0C20681F237E
:10220000C1F384610CEA921C02F01F026044934007
:102210009140026B9A430A430263206804F0D9FBA1
:102220008046206804F0D1FB58EA000003D07FE02C
:10223000C0F38460D8E72068AA68296804F0D5FB59
:10224000C0490968B9EB117F06D121686869C9687E
:10225000C1F38201490008E02068C168C906C1686D
:102260006869F5D501F010014908884029690429F9
:102270002ED022682B6802EB810103F0F8420B6E2E
:10228000024303F0004010430866697E2268286913
:10229000012917D05FF0000102EB8000026E22F0EE
:1022A00000420A430266287E21682A6901280CD070
:1022B00000200B6902F01F02904023F4F042024319
:1022C0000A6135E04FF00041E6E74FF40060F0E7C7
:1022D00020682978026E02F0F842B2EB816F03D1D8
:1022E000016E21F00041016620682978426E02F0FB
:1022F000F842B2EB816F03D1416E21F0004141669B
:1023000020682978826E02F0F842B2EB816F03D127
:10231000816E21F00041816620682978C26E02F04A
:10232000F842B2EB816F03D1C16E21F00041C1666A
:102330002068816811F0010F75D150F8C02F95F811
:102340000CC0814B29680CF0180C23FA0CF3C1F374
:1023500013080B4022EA08021A4302607B48E9682E
:10236000814276D1286801031AD090FAA0F1B1FA1F
:1023700081F1491C01F01F0109294FEA003130D8D1
:10238000002910D090FAA0F1B1FA81F101F1010118
:1023900001F01F0109FA01F208D1C0F3846109E0DC
:1023A000C0F38461E5E7C0F38461EFE790FAA0F140
:1023B000B1FA81F101F1010101F01F0142EA8161ED
:1023C00002D1C0F3846003E090FAA0F0B0FA80F08C
:1023D00000F1010000F01F0000EB400041EA005155
:1023E00033E000290ED090FAA0F1B1FA81F100BFDC
:1023F00001F1010101F01F0109FA01F205D1C0F359
:10240000846106E0C0F38461F2E790FAA0F1B1FACA
:1024100081F101F1010101F01F0142EA816103D163
:10242000C0F3846004E040E090FAA0F0B0FA80F0DD
:10243000474A00F1010000F01F0000EB400002EBF2
:10244000005041EA000141F00071AA68206804F0E0
:10245000CCFAD5F800C0BCF1000F26DA3D4B20685D
:102460003D49DFF8F890984201D0B04201D10A46C8
:1024700000E04A469268984202F0E07201D0B04211
:1024800009D19D68D6F8088005F0010508F001081B
:1024900045EA080503E0DAF8085005F0010545B102
:1024A000606D012740F020006065384684F850B028
:1024B0008EE62B4DAC451CD115021AD45045F4D1F3
:1024C000984202D0B04200D049468B6842F40000E6
:1024D00023F0E07202438A60234922480968B1FB75
:1024E000F0F04000801C00E0401E00900028FBD16E
:1024F000DBE71E4DAC450CD1D5010AD45045D4D1F3
:10250000984202D0B04200D049468B6842F08070B9
:102510000EE0174DAC45C8D15502C6D45045C4D1C4
:10252000984202D0B04200D049468B6842F4800005
:1025300023F0E07202438A60B7E700000021024006
:10254000006002580010005CFFFF0F000000FF4712
:10255000000020FE002002400023024000630258D9
:10256000000084CB400D03001C000020000052C777
:102570000000B8CF70477047704700002DE9F05F4A
:102580000446006806684568DFF87082DFF870B2BC
:10259000DFF87092404501D0484501D1584600E02F
:1025A0009948806800F01F07B0070ED5A8070CD522
:1025B000606DC00603D4606D40F400606065204625
:1025C000FFF7E7FD216802200860700701D5680762
:1025D00003D4300737D5280735D5606DC00603D43E
:1025E000606D40F400706065206804F0F6F920B377
:1025F0002068484501D1424600E00246824208D0A8
:102600003FB1052F05D0092F03D0484503D14146DE
:1026100002E0C16801E00146C96889040DD401687F
:1026200009070AD504F0D5F958B3606D40F01000E1
:102630006065A06D40F00100A0652046FFF79AFF9D
:1026400021680C200860B00601D5A80603D47006E6
:1026500058D5680656D5606DC00603D4606D40F449
:10266000005060652068C16C11F4C07F1AD0002151
:102670008A4604F0B2F902462068484514D1434620
:1026800013E02068416821F00C014160606D20F486
:1026900080706065606DC004CFD4606D40F0010053
:1026A0006065CAE70121E3E70346834208D03FB1F2
:1026B000062F05D0072F03D0484503D1414602E03D
:1026C000C16801E00146C968BAF1000F04D18B016D
:1026D00012D48AB18A040FD4026852060CD589023A
:1026E0000AD404F072F9E8B3606D40F01000606540
:1026F000A06D40F00100A0652046FFF74BFD21686A
:102700006020086030060BD5280609D5606D40F4BE
:1027100080306065204600F08DF9216880200860D7
:10272000F0050CD5E8050AD5606D40F40030606511
:102730002046FFF731FD21684FF480700860B00536
:102740000CD5A8050AD5606D40F480206065204650
:10275000FFF723FD21684FF400700860F00631D5C3
:10276000E80600E00AE02DD5206BE8B12068EFB361
:10277000404501D0484512D1584611E020684168D3
:1027800021F060014160606D20F480506065606DF3
:10279000C005B1D4606D40F001006065ACE71A4837
:1027A000806800F4404050B1606D40F48060606526
:1027B000A06D40F00200A0652046FFF7DDFE216815
:1027C00010200860700517D5680515D5616D4FF4A8
:1027D000806041F480416165A16D41F00801A1650F
:1027E000216808602046BDE8F05F00E001E0FFF7E7
:1027F000D2BCC0688007D6E7BDE8F09F0020024049
:10280000002302400021024000630258F8B54FF057
:10281000000604003546009602D0606D10B107E056
:102820000120F8BD204600F007F9A66584F8506045
:1028300020688168C1F3407119B18168704A114004
:10284000816020688168C1F3007181B981686D4A37
:10285000114041F0805181606C496B480968B1FBBF
:10286000F0F0401C00E0401E00900028FBD12068E2
:102870008168C1F3007141B9616D012541F010011A
:102880006165A16D41F00101A16504F0A2F8616DDF
:1028900001F010010143606D03D0012540F01000EC
:1028A00092E020F4807040F002006065206881684A
:1028B00011F0010F1FD1564A564B904201D0984259
:1028C00007D191689E6801F0010106F001063143CD
:1028D00003E05149896801F0010161B9904201D0DA
:1028E000984201D14D4800E04D488268616822F469
:1028F0007C120A43826001F09BFC41F20301884292
:1029000002D9A06810280CD0617D227FA368206BBB
:10291000490341EA024118430843217F01290CD0B1
:1029200010E0607D227F216B400340EA024241F0CB
:102930001000104340F00C00EFE7218C394A02EB05
:1029400041410843616A29B1A26A01F478710143E7
:1029500042EA01002168344BCA681A400243CA6047
:10296000206804F036F80646206804F02EF830435C
:102970001DD1206844F20303267DE16AC26841EA62
:1029800086319A430A43C26094F8380001281ED069
:102990002068016921F0010101612068626B016911
:1029A00021F07041114301612046FEF7ABFFE06862
:1029B000012820681CD0016B21F00F010163606DBC
:1029C00020F0020040F0010060652846F8BD206854
:1029D000A38F164FD4E9101C154E07EB0347A26CCA
:1029E000036941EA0C013A43334011431943D3E7E9
:1029F000A269016B521E21F00F011143DEE70000B6
:102A0000C0FFFF5FC0FFFF7F400D03001C000020E0
:102A100000200240002102400060025800230240D2
:102A2000006302580000FEFF03C0F0FF0100FFFF3B
:102A30001EF800FC70470000F0B5B5B00646142142
:102A40002FA8FDF77DFCBC216846FDF779FC2C49D9
:102A50003068884252D1022000250724CDE9034086
:102A6000CDE9050581040795192208954FF4FC73FB
:102A700028958DE80E00684602F004F808B1FFF7CB
:102A800086FB2048016841F020010160006800F0E9
:102A9000200034901B480830016841F004010160B7
:102AA00000682FAA032100F004003490302082E84F
:102AB000230015482FA901F09DFA144C0A2114484F
:102AC0004FF4807C021584E823001701C4E9035207
:102AD00083142046C4E907C56562C4E9053700F0E0
:102AE00047FF08B1FFF753FB0022F46412201146A0
:102AF000A66301F03BFC122001F02AFC35B0F0BDCA
:102B000000210240D8440258000802588C4000209E
:102B1000100002402DE9F047384E04460068914607
:102B2000DFF8DC808A46B04201D0404501D135490A
:102B300000E03549896801F01F0503F04AFF0028CD
:102B400059D194F85000012855D001204FF00007CA
:102B500084F8500025B1052D02D0092D00D003E0E6
:102B60002046FFF743F818B184F85070BDE8F087AD
:102B7000616D40F6016320689943404541F48071DE
:102B8000616500D00646864200D01DB9606D20F414
:102B900080106065606DC00404D5A06D20F0060053
:102BA000A06500E0A7651C20E16C184ACA63E26CCE
:102BB00017491164E26C1749D1642168086084F8F0
:102BC00050702068416841F0100141602068E16A5E
:102BD000C26822F003020A43C26021684B46E06CDF
:102BE0005246403101F0A6F821680B4B8A681A4022
:102BF000121D8A60BAE70220B8E7000000200240F8
:102C0000002102400023024000630258F11A00082C
:102C1000731B0008591B0008C0FFFF7F70B50446F6
:102C200090F85000012809D0012084F850000321B9
:102C30002046FEF7EBFE050002D027E0022070BD23
:102C40002068C16821F00301C160E06C90F8351084
:102C5000022907D100F020F8050003D0606D40F094
:102C6000400060652068416821F010014160204605
:102C700015B1FEF783FF09E0FEF780FF050005D1DF
:102C8000606D20F4885040F001006065002084F8F9
:102C90005000284670BD00002DE9F84F044601F0B1
:102CA000CDFA002C009008D094F83500022805D009
:102CB00080216165002084F83400E3E0C84DC84EEF
:102CC000C749183520683036DFF81883DFF81893C5
:102CD0008842DFF818A3DFF818B32ED0A8422CD012
:102CE000B0422AD0404528D0484526D0504524D06F
:102CF000584522D0BE4A183290421ED0BD4A90425A
:102D00001BD0BC4A1832904217D0BA4A3032904297
:102D100013D0B84A483290420FD0B64A603290423F
:102D20000BD0B44A7832904207D0B24A90329042E7
:102D300003D0B04AA832904209D1026822F01E02A4
:102D400002602068426922F08002426103E002686A
:102D500022F00E02026027688F4238464DD0A8420A
:102D60004BD0B04249D0404547D0484545D050456A
:102D700043D0584541D09E4A183290423DD09D4A9A
:102D800090423AD09B4A1832904236D0994A30321B
:102D9000904232D0974A483290422ED0954A6032C3
:102DA00090422AD0934A7832904226D0914A90326B
:102DB000904222D08F4AA83290421ED08E4A904232
:102DC0001BD08D4A1432904217D08B4A2832904241
:102DD00013D0894A3C3290420FD0874A50329042F9
:102DE0000BD0854A6432904207D0834A78329042B1
:102DF00003D0814A8C32974204D1206E026822F4BB
:102E00008072026076492068884228D0A84226D085
:102E1000B04224D0404522D0484520D050451ED055
:102E200058451CD072491831884218D071498842DF
:102E300015D070491831884211D06E49303188421E
:102E40000DD06C494831884209D06A4960318842C6
:102E500005D068497831884201D0664990310168CF
:102E600021F00101016010E001F0E8F90099401A39
:102E700005280AD9202262650020032184F8340045
:102E800084F835100120BDE8F88F3868C007EBD111
:102E9000534A0121206890422ED0A8422CD0B04243
:102EA0002AD0404528D0484526D0504524D0584502
:102EB00022D04F4B183398421ED04E4B98421BD015
:102EC0004C4B1833984217D04A4B3033984213D0AA
:102ED000484B483398420FD0464B603398420BD052
:102EE000444B7833984207D0424B9033984203D0FA
:102EF000404BA833984208D194F85C703F23A06DF2
:102F000007F01F07BB40836007E094F85C30A06DBA
:102F100003F01F0301FA03F34360206890424DD091
:102F2000A8424BD0B04249D0404547D0484545D053
:102F3000504543D0584541D02D4A183290423DD09B
:102F40002C4A90423AD02B4A1832904236D0294A25
:102F50003032904232D0274A483290422ED0254A11
:102F6000603290422AD0234A7832904226D0214AB9
:102F70009032904222D01F4AA83290421ED01E4A60
:102F800090421BD01C4A1432904217D01A4A283261
:102F9000904213D0184A3C3290420FD0164A503219
:102FA00090420BD0144A6432904207D0124A7832D1
:102FB000904203D0104A8C3290420BD1D4E91902CE
:102FC0004260E06E30B1026822F480720260D4E99F
:102FD0001C024260002084F8340084F8351052E767
:102FE0001000024058000240700002408800024079
:102FF000A000024010040240085402582DE9F05F7E
:1030000028B190F83510022904D0802141650120B3
:10301000BDE8F09F904C904B0168183C18338E4AE5
:10302000DFF83C92A1428D4CDFF838E28E4FDFF89A
:103030003CB2DFF83CA28F4D8F4E31D091422FD061
:1030400099422DD0A1422BD0494529D0714527D096
:10305000B94225D0DFF810C20CF1180C61451FD021
:10306000DFF808C2ACF1600C614519D0DFF8FCC193
:10307000ACF1480C614513D0DFF8F0C1ACF1300C75
:1030800061450DD0DFF8E4C1ACF1180C614507D003
:10309000594505D0514503D0A94201D0B1422CD1A8
:1030A000DFF8B4C14FF0040880F83580ACF1180C9B
:1030B00061451DD091421BD0994219D0A14217D031
:1030C000494515D0714513D0B94211D06648183022
:1030D00081420DD065486038814209D06348483844
:1030E000814205D061483038814201D05F481838AC
:1030F000086820F001000860ABE0D1F800C02CF0B7
:103100000E08DFF854C1C1F80080ACF1180C01685A
:10311000614527D0914225D0994223D0A14221D0A8
:1031200049451FD071451DD0B9421BD0DFF838C1C9
:103130000CF1180C614515D0DFF830C1ACF1600C12
:1031400061450FD0DFF824C1ACF1480C614509D0CE
:10315000DFF818C1ACF1300C614503D0DFF80CC1C9
:10316000ACF1180CD1F800C02CF0010CC1F800C073
:10317000DFF8E4804FF0010C0168A8F11808414520
:1031800046D0914244D0994242D0A14240D04945D4
:103190003ED071453CD0B9423AD0334A18329142C0
:1031A00036D0324A603A914232D0304A483A91425F
:1031B0002ED02E4A303A91422AD02C4A183A9142C7
:1031C00026D0594524D0514522D0A94220D0B14221
:1031D0001ED02A4A91421BD0284A1432914217D05D
:1031E000264A2832914213D0244A3C3291420FD0D1
:1031F000224A503291420BD0204A6432914207D089
:103200001E4A7832914203D01C4A8C32914218D126
:10321000016E0A6822F480720A6090F85C20816D69
:1032200002F01F020CFA02F24A60D0E919124A6059
:10323000C16E31B10A6822F480720A60D0E91C12B2
:103240004A600022016D80F8342080F835C001B159
:1032500088470020DCE600002800024058000240B9
:103260007000024088000240A0000240700402404A
:1032700088040240A0040240B804024008540258E6
:103280002DE9FC5F0446FA4E0020DFF8E48300904D
:103290004FF41652F74808F11808A56DDFF8D0A3CF
:1032A000DFF8CCB301680AF1300A20680BF1480B53
:1032B000B1FBF2F1B04201912F68D5F800C0DFF800
:1032C000B89336D04146884233D0504531D0584526
:1032D0002FD0E749603188422BD0E54978318842C8
:1032E00027D0E3499031884223D0E149A831884270
:1032F0001FD048451DD0E0491831884219D0DE4919
:103300003031884215D0DC4A4832904211D0DA4937
:10331000603188420DD0DFF860E30EF1780E704521
:1033200007D0D54B9033984203D0D349A831884277
:103330007ED194F85C20082102F01F0201FA02F20B
:103340003A424BD0B04233D0404531D050452FD0D7
:1033500058452DD0C64A6032904229D0C44A7832AE
:10336000904225D0C24A9032904221D0C04AA83221
:1033700090421DD048451BD0BF4A1832904217D00A
:10338000BD4A3032904213D0BB4A483290420FD0EF
:10339000B94A603290420BD0B74A7832904207D097
:1033A000B54A9032904203D0B34AA832904203D13A
:1033B000026802F0040202E0026802F008026AB148
:1033C000026822F00402026094F85C0000F01F0022
:1033D0008140A960606D40F00100606594F85C0078
:1033E000012100F01F008140394241D02068B042E5
:1033F00035D0404533D0504531D058452FD09C4A28
:10340000603290422BD09A4A7832904227D0984A24
:103410009032904223D0964AA83290421FD048451D
:103420001DD0954A1832904219D0934A303200E0AC
:10343000B2E1904213D0904A483290420FD08E4A67
:10344000603290420BD08C4A7832904207D08A4A40
:103450009032904203D0884AA83290427ED140698F
:1034600010F0800F04D0A960606D40F0020060652C
:1034700094F85C00042100F01F00814039423FD0E5
:103480002068B04233D0404531D050452FD0584508
:103490002DD0774A6032904229D0754A78329042D6
:1034A00025D0734A9032904221D0714AA83290427E
:1034B0001DD048451BD0704A1832904217D06E4A32
:1034C0003032904213D06C4A483290420FD06A4A50
:1034D000603290420BD0684A7832904207D0664AF8
:1034E0009032904203D0644AA83290424FD1006893
:1034F00010F0020F04D0A960606D40F00400606518
:1035000094F85C00102100F01F008140394259D02E
:103510002068B04235D0404533D0504531D0584571
:103520002FD0534A603290422BD0514A7832904289
:1035300027D04F4A9032904223D04D4AA832904231
:103540001FD048451DD04C4A1832904219D04A4AE3
:103550003032904215D0484A483200E015E090429F
:103560000FD0454A603290420BD0434A78329042A5
:1035700007D0414A9032904203D03F4AA83290424D
:1035800007D1006800F0080006E0006870E70068F6
:10359000B6E7006800F00400A0B1A96020680168E7
:1035A000490304D50068000308D5A16C07E0016851
:1035B000C90503D4016821F008010160216C09B13B
:1035C0002046884794F85C00202100F01F008140CD
:1035D000394278D02068B04233D0404531D0504590
:1035E0002FD058452DD0224A6032904229D0204A0F
:1035F0007832904225D01E4A9032904221D01C4A07
:10360000A83290421DD048451BD01B4A1832904228
:1036100017D0194A3032904213D0174A483290429C
:103620000FD0154A603290420BD0134A7832904244
:1036300007D0114A9032904203D00F4AA8329042EC
:1036400003D1006800F0100002E0006800F0020002
:10365000A0B3A96094F835000428206801680DD053
:1036600049037DD50068000329D4616C28E000007F
:10367000100002401C0000201004024021F016013E
:1036800001602068416921F080014161206C08B926
:10369000A06C20B12068016821F00801016094F855
:1036A0005C303F21002203F01F0301209940A960F4
:1036B00084F8342084F83500216D66E003E0E16B86
:1036C00009B120468847606D00287DD0606DC00735
:1036D0005AD02068042184F83510B0422BD04045E0
:1036E00029D0504527D0584525D09E49884222D020
:1036F0009C49183188421ED09A49303188421AD0EC
:1037000098494831884216D0484514D09649884295
:1037100011D09549183188420DD0934930318842F3
:1037200009D091494831884205D08F49603188429B
:1037300001D08D497831016821F0010101602068D4
:103740000099019A491C0091914202D80168C90769
:10375000F6D1002184F834100068C00711D000E0D1
:1037600001E003200EE00168C905A8D40368002227
:10377000012123F01003036084F8342084F835100D
:103780009DE7012084F83500E16C00291CD002B0CF
:103790002046BDE8F05F0847744988421DD0734950
:1037A0001431884219D071492831884215D06F49A7
:1037B0003C31884211D06D49503188420DD06B495F
:1037C0006431884209D000E086E068497831884257
:1037D00003D066498C3188427ED194F85C800427FE
:1037E000016808F01F0807FA08F717EA0C0F00979E
:1037F00046D04F0744D500980F04686003D5C8032E
:103800003CD4A16CC1E7880638D42068B0422DD0E2
:1038100054494839884229D0504527D0584525D0A9
:103820005049884222D04F49183188421ED04D4914
:10383000303188421AD04B494831884216D0484529
:1038400014D04949884211D04749183188420DD0D7
:1038500090420BD044494831884207D0704505D08A
:10386000984203D040499031884203D1016821F049
:10387000080102E0016821F004010160216C84E785
:10388000022707FA08F717EA0C0F00974ED08F07A8
:103890004CD500980F04686003D5C80344D4616C0C
:1038A00073E7880640D42068B0422FD02D494839AC
:1038B00088422BD0504529D0584527D029498842E5
:1038C00024D028491831884220D0264930318842F6
:1038D0001CD02449483100E041E0884216D04845D8
:1038E00014D02149884211D01F49183188420DD087
:1038F00090420BD01C494831884207D0704505D012
:10390000984203D018499031884203D1016821F0D0
:10391000140102E0016821F00A010160002184F82D
:103920003410012084F83500E16B2EE7082202FAFA
:1039300008F212EA0C0F12D0090710D5016821F025
:103940000E01016094F85C100120002201F01F01BB
:1039500000FA01F16960606584F8342012E7BDE87F
:10396000FC9F0000700002402804024008540258E6
:103970002DE9F05F044600F061FC002C07467DD085
:10398000E34E022120684FF00308DFF888934FF0E0
:103990000005DFF884A3B042DFF880B334D0DC4AFE
:1039A0001832904230D048452ED050452CD0584542
:1039B0002AD0DA4A1832904226D0D84A3032904281
:1039C00022D0D64A483290421ED0D54A90421BD0CF
:1039D000D34A1832904217D0D14A3032904213D095
:1039E000CF4A483290420FD0CD4A603290420BD03D
:1039F000CB4A7832904207D0C94A9032904203D0E5
:103A0000C74AA83290427DD184F8345084F83510EA
:103A1000B0422ED0BE49183188422AD0484528D01D
:103A2000504526D0584524D0BC491831884220D072
:103A3000BA49303188421CD0B8494831884218D040
:103A4000B749884215D0B6491831884211D0B449D7
:103A5000303188420DD0B2494831884209D0B0494E
:103A60006031884205D0AE497831884201D0AC49F6
:103A70009031016821F00101016008E027E100BFF9
:103A800000F0DCFBC01B052801D920211CE12068C7
:103A90000068C007F4D104F108002168D4E9053CAE
:103AA0008E4685C809681043D4E907281F43636A16
:103AB00038439C4F40EA0C001043394040EA08006C
:103AC000042B40EA010003D1D4E90B12114308434F
:103AD000954909686FF30F01B1F1005F0FD3616879
:103AE000A1F12902052A08D9163A032A05D9083A6C
:103AF000012A02D94F39032901D840F48010CEF8A9
:103B0000000000E023E02068676A4069042F20F08D
:103B1000070047EA00070DD1D4E90A01074349B17C
:103B20002046FEF7F9F928B140206065012184F8AC
:103B30003510CCE0206847612046FEF70BF994F879
:103B40005C203F2102F01F029140816054E0774ADF
:103B500090421BD0754B1433984217D0734B2833C7
:103B6000984213D0714B3C3398420FD06F4B503377
:103B700098420BD06D4B6433984207D06B4B78332F
:103B8000984203D0694B8C3398427DD1684B84F8BE
:103B9000345084F835100168A26801EA030E402A07
:103BA00073D0802A72D00022D4E90378D4E9053199
:103BB00042EAD70242EAD8085C4AD4E9077C48EADC
:103BC000D30848EAD10141EAD701524241EA1C1127
:103BD000142341EA0E01016020681044B0FBF3F0A9
:103BE0008000E0652046FEF7B5F894F85C200121DE
:103BF00002F01F02914041602068B04257D0444912
:103C00001831884253D0484551D050454FD058457F
:103C10004DD042491831884249D04049303188421C
:103C200045D03E494831884241D03D4988423ED046
:103C30003B49183188423AD039493031884236D030
:103C400037494831884232D03549603188422ED0D8
:103C50003349783188422AD031499031884226D080
:103C60002F49A831884222D0304988421FD02F499D
:103C7000143188421BD02D492831884217D02B4956
:103C80003C31884213D002E01DE017E018E02749DC
:103C9000503188420BD025496431884207D02349EE
:103CA0007831884203D021498C31884229D120467D
:103CB000FEF7AAF8A06880280CD00CE0102273E769
:103CC0004FF4804270E74021616584F8358001201F
:103CD000BDE8F09F6560216E20790860D4E9190184
:103CE00041606068401E072808D82046FEF7DAF8D1
:103CF000E06E0560D4E91C01416002E0E5662567DD
:103D000065670120656584F835000020E0E7000064
:103D10001000024040000240580002407000024083
:103D2000100402403F8010FE0010005C085402584E
:103D30000F00FEFF2DE9F84F04008C464FF0000005
:103D4000009013D094F83400012811D094F8355025
:103D50000120002184F83400012D0BD084F83410A8
:103D6000C202009062650098BDE8F88F0120FBE771
:103D70000220F9E78C4D0226206884F83560A842BD
:103D80008A4D61658A4E8B4FDFF82C82DFF82C92CA
:103D9000DFF82CA2DFF82CB226D0A84224D0B04203
:103DA00022D0B84220D040451ED048451CD05045B6
:103DB0001AD0584518D08449884215D08249183104
:103DC000884211D08049303188420DD07E49483137
:103DD000884209D07C496031884205D07A497831DF
:103DE000884201D078499031016821F001010160D9
:103DF00061462046FEF7BAF86B49206888422CD00D
:103E0000A8422AD0B04228D0B84226D0404524D07B
:103E1000484522D0504520D058451ED06A4A90428D
:103E20001BD0694A1832904217D0674A303290420C
:103E300013D0654A483290420FD0634A60329042B4
:103E40000BD0614A7832904207D05F4A903290425C
:103E500003D05D4AA83290420CD1026822F01E02C3
:103E600042F016020260206C88B12068026842F0BD
:103E700008020BE0026822F00E0242F00A02026021
:103E8000206C20B12068026842F0040202602068C1
:103E900088424BD0A84249D0B04247D0B84245D022
:103EA000404543D0484541D050453FD058453DD08E
:103EB000454A90423AD0444A1832904236D0424A5B
:103EC0003032904232D0404A483290422ED03E4A60
:103ED000603290422AD03C4A7832904226D03A4A08
:103EE0009032904222D0384AA83290421ED0374AAF
:103EF00090421BD0354A1432904217D0334A2832B0
:103F0000904213D0314A3C3290420FD02F4A503267
:103F100090420BD02D4A6432904207D02B4A78321F
:103F2000904203D0294A8C3290420DD1206E026813
:103F3000D20303D5026842F480720260E06E18B1C9
:103F4000026842F4807202602068884226D0A8424B
:103F500024D0B04222D0B84220D040451ED048459F
:103F60001CD050451AD0584518D01749884215D052
:103F700015491831884211D01349303188420DD08B
:103F800011494831884209D00F496031884205D033
:103F90000D497831884201D00B499031016841F0D8
:103FA00001010160DFE6000010000240280002402D
:103FB0004000024058000240700002408800024069
:103FC000A0000240B8000240100402400854025809
:103FD00070B5044600F032F90546601C02D0044872
:103FE0000078044400F02AF9401BA042FAD370BDC7
:103FF000100000202DE9FC4F01257E4C00234FF0DE
:10400000030A4FF0B04E4FF00F0BEBE005FA03F64A
:1040100037403A0077D04F68012F05D0022F03D0E8
:10402000112F01D0122F1AD187684FEA4308D1F817
:104030000CC00AFA08F927EA09070CFA08FC4CEA4E
:10404000070CC0F808C0476891F804C0B743CCF328
:10405000001C0CFA03FC4CEA070CC0F804C0C6684C
:104060004FEA430CD1F80880E1460AFA0CF7BE4348
:10407000019708FA09F848EA0608C0F80C804E686B
:10408000022E01D0122E12D1DE084FEA437C00EB43
:10409000860600960F69366A4FEADC6C0BFA0CF85C
:1040A00007FA0CF726EA08063743009E37620E79B6
:1040B0000768DDF804C006F0030606FA09F627EAE9
:1040C0000C073E4306604E68F6001CD54A4E376822
:1040D00047F00207376036689F0706F00206009631
:1040E00023F0030606F1B046B1463F0FD6F8086448
:1040F000DFF808810BFA07FC404526EA0C0603D1DD
:104100004FF0000C41E06CE0DFF8F4C0604502D1F4
:104110004FF0010C39E0DFF8ECC0604502D14FF000
:10412000020C32E0DFF8E0C0604502D14FF0030C32
:104130002BE0DFF8D8C0604502D14FF0040C24E03A
:10414000DFF8CCC0604502D14FF0050C1DE0DFF870
:10415000C4C0604502D14FF0060C16E0DFF8B8C0CD
:10416000604502D14FF0070C0FE0DFF8B0C06045AA
:1041700002D14FF0080C08E0DFF8A4C0604502D17E
:104180004FF0090C01E04FF00A0C0CFA07FC4CEA66
:10419000060CC9F808C426684F6826EA0206FF0321
:1041A00000D51643266066684F6826EA0206BF03FC
:1041B00000D516436660D1F804C07646DEF800707C
:1041C0005FEACC2C27EA020700D517433760D1F805
:1041D00004C077685FEA8C2C27EA020700D51743F2
:1041E00077605B1C0A681746DA407FF40FAFBDE8C2
:1041F000FC8F000080000058F44402580000025870
:104200000004025800080258000C0258001002581E
:104210000014025800180258001C025800200258CE
:10422000002402580AB1816170470904FBE70000CD
:1042300001480068000C70470010005C014880686D
:104240007047000010000020024881680278114485
:104250008160704710000020032010B500F0A6F820
:1042600001F0EEF90F4A104914681368C4F30322F1
:1042700003F00F038A5CC95C02F01F0201F01F010A
:10428000D0400A4A20FA01F11160094908600F2064
:1042900000F010F808B1012010BD00F04BF800202C
:1042A00010BD000018440258E486000820000020D9
:1042B0001C00002070B50D4D04462878A0B14FF4C5
:1042C0007A71B1FBF0F00A490968B1FBF0F001F036
:1042D000D7FC48B9102C07D200222146501E00F00E
:1042E00045F800206C6070BD012070BD10000020FA
:1042F0001C000020BFF35F8F044800210368034ABD
:1043000023F48033036070321160704724ED00E0C5
:10431000074A40F00100064970321060086840F416
:1043200080300860BFF34F8FBFF36F8F704700007E
:1043300024ED00E0054808B5016841F00201016084
:10434000006800F00200009008BD0000F44402582C
:10435000002809DB410900F01F028900012001F15A
:10436000E0219040C1F80001704700000E4BF0B40E
:104370001B680D46C3F30223C3F10706042E00D9C0
:104380000426191D072901D2002300E0DB1E0124A9
:1043900004FA06F19C40491E2940641E99401440CD
:1043A0002143F0BC03F0DCBB0CED00E0064900F05B
:1043B000070210B54FF6FF040868044B204040EA9E
:1043C00002201843086010BD0CED00E00000FA0563
:1043D000134970B50A68D243520705D5096801F040
:1043E0000701814213D118E00A6822F00702024354
:1043F0000A60FFF723FF0A4D4FF47A760446083D22
:1044000007E000BFFFF71AFF001BB04201D90120EF
:1044100070BD2868C0438004F4D4002070BD000043
:104420000C48025810B501F0C5F805490968054A5D
:10443000C1F30211515C01F01F01C84010BD000022
:1044400020440258E48600084A4930B5494C0B1D07
:104450000A680C3409681D68246802F0030305F03B
:104460000102C1F30511C4F3CC04002914FB02F2CC
:1044700000EE102AF8EE400A76D0414A9FED3E1A2F
:10448000DFED3E1AB7EE000A23B1012B5AD0022B02
:1044900018D15CE0374C283C23689B0612D5394B79
:1044A000246801EE901A1168C4F3C104F8EE612A81
:1044B000E34001EE903AC1F30801F8EE611A81EE93
:1044C000A22A07E002EE101A1168F8EE422A81EEE5
:1044D000A22A45E001EE901A1168F8EE611A40EE4A
:1044E000811A71EE800A62EE200AC1F3462101EEC4
:1044F000101AB8EE411A31EE001AC0EE811ABCEE65
:10450000E11A80ED001A1168C1F3064101EE101A9C
:10451000B8EE411A31EE001AC0EE811ABCEEE11A73
:1045200080ED011A1168C1F3066101EE101AB8EEB0
:10453000411A31EE000A80EE801ABCEEC10A80ED0D
:10454000020A30BD01EE901ADFED0F2A03E001EE02
:10455000901ADFED0E2A1168F8EE611A82EEA12A98
:10456000C1F30801B6E7FFE7002101604160816007
:1045700030BD000028440258000000390024744C6B
:10458000304402580090D0030024744A20BCBE4B33
:10459000494930B5484C0B1D0A68143409681D6838
:1045A000246802F00303C5F30012C1F30531C4F31C
:1045B000CC04002914FB02F200EE102AF8EE400AA7
:1045C00075D03F4A9FED3D1AB7EE000A6BB1DFEDA3
:1045D0003D1A012B01D0022B64D002EE101A116893
:1045E000F8EE422A81EEA22A21E0334C283C2368CF
:1045F0009B0612D5344B246801EE901A1168C4F35F
:10460000C104F8EE612AE34001EE903AC1F30801DB
:10461000F8EE611A81EEA22A0BE001EE901ADFEDAE
:104620002B2A00BFF8EE611A116882EEA12AC1F3AD
:10463000080101EE901A1168F8EE611A40EE811A35
:1046400071EE800A62EE200AC1F3462101EE101AD3
:10465000B8EE411A31EE001AC0EE811ABCEEE11A32
:1046600080ED001A1168C1F3064101EE101AB8EE90
:10467000411A31EE001AC0EE811ABCEEE11A80ED4B
:10468000011A1168C1F3066101EE101AB8EE411A61
:1046900031EE000A80EE801ABCEEC10A80ED020AFB
:1046A00030BD04E001EE901ADFED092ABAE70021DF
:1046B000016041608160F3E728440258000000393E
:1046C000384402580024744A0090D0030024744CEB
:1046D00020BCBE4B494930B5484C0B1D0A681C3400
:1046E00009681D68246802F00303C5F30022C1F3C2
:1046F0000551C4F3CC04002914FB02F200EE102A89
:10470000F8EE400A75D03F4A9FED3D1AB7EE000A19
:104710006BB1DFED3D1A012B01D0022B64D002EE0C
:10472000101A1168F8EE422A81EEA22A21E0334CD9
:10473000283C23689B0612D5344B246801EE901A5E
:104740001168C4F3C104F8EE612AE34001EE903A27
:10475000C1F30801F8EE611A81EEA22A0BE001EE26
:10476000901ADFED2B2A00BFF8EE611A116882EE75
:10477000A12AC1F3080101EE901A1168F8EE611A3E
:1047800040EE811A71EE800A62EE200AC1F34621E2
:1047900001EE101AB8EE411A31EE001AC0EE811A7D
:1047A000BCEEE11A80ED001A1168C1F3064101EE7A
:1047B000101AB8EE411A31EE001AC0EE811ABCEEA2
:1047C000E11A80ED011A1168C1F3066101EE101AB9
:1047D000B8EE411A31EE000A80EE801ABCEEC10A32
:1047E00080ED020A30BD04E001EE901ADFED092AE7
:1047F000BAE70021016041608160F3E72844025874
:1048000000000039404402580024744A0090D0034C
:104810000024744C20BCBE4B2DE9F04F944A4FF459
:104820008079DFF848824845924B89B0924EA8F1D2
:10483000040592494FF080574FEA22144FF0005C74
:104840002ED1D8F8000000F00700052824D2DFE8B8
:1048500000F09BB58425AA0003A8FFF7F5FD049896
:1048600009B0BDE8F08F6846FFF792FE0098F7E7C1
:1048700006A8FFF72FFF0698F2E70868C0F3C1000B
:1048800022FA00F0ECE70A68D2057CD5B8427AD16A
:104890002046E5E71846E3E70020E1E73046DFE79A
:1048A000B0F5007F1AD0DFF8D891B0F5806F26D030
:1048B000B0F5006F37D04FF4805A50454FF4804B1D
:1048C0004FD1D8F8000000F4E040B0F5005F44D0CC
:1048D0003DDC002858D05045DED16FE0D8F800000C
:1048E00000F4E070802838D004DC00284CD0402848
:1048F000D2D163E0C028D1D04845CDD153E0D9F81A
:10490000000000F46000B0F5800F26D004DCD8B3BE
:10491000B0F5001FC0D151E0B0F5C00FBED0B0F56A
:10492000000FB9D13FE0D9F8000000F0E060B0F12D
:10493000007F12D004DC38B3B0F1807FACD13DE011
:10494000B0F1407FAAD0B0F1806FA5D12BE0B0F5D7
:10495000405FA3D058459FD125E0086880009BD5D3
:1049600086E7B0F5002F4FF4803612D0B04237D131
:10497000286810F4803075D0B0428DD108680001ED
:104980008AD5684601E025E06CE0FFF701FE029859
:1049900066E7D9F8000010F440300FD0B04211D0D3
:1049A000B0F5003F98D128680D6800F040506D07C1
:1049B0007FF569AF00287FF466AF5EE70868000105
:1049C000CDD550E708688000C9D506A8FFF782FE5C
:1049D000089845E709688903C1D5604588D159E73A
:1049E00058452BD1D9F8000000F0E040B0F1405F0D
:1049F0001CD00CDC90B1B8422CD060458AD108683C
:104A00008000ACD506A8FFF765FE079828E7B0F14F
:104A1000804F0FD0B0F1A04F90D11FE0FFF702FD03
:104A20001EE76846FFF7B4FD019819E708684007DC
:104A300095D522E70868C00591D529E7B0F5004F64
:104A400089D1D8F8000010F0405007D0B84209D002
:104A5000604592D108680001E3D41DE7086880032F
:104A6000FBD517E708688001F7D5F5E650440258F2
:104A70000090D00340787D010080BB0000440258C4
:104A8000584402582DE9FC5F044650F8241B0025C9
:104A900000902E460801FE4FDFF8F8831DD5606EAA
:104AA00050B1B0F5801F0CD0B0F5001F0ED0B0F59E
:104AB000401F1DD001250FE0386840F400303860F9
:104AC00016E00221201D02F005F903E00098022102
:104AD00002F090F905000BD02E462088C00523D5A2
:104AE000606D05281ED2DFE800F00C11161B1B00BC
:104AF000626ED8F8001021F440111143C8F800107C
:104B0000EBE7386840F40030386009E00021201DF0
:104B100002F0E0F803E00098002102F06BF905468E
:104B20006DB100E001252E462088800528D5A06DB6
:104B300080281ED00CDC90B140280ED114E0626DAC
:104B4000D8F8001021F007011143C8F80010EBE776
:104B5000C02813D0B0F5807F10D001250FE0386851
:104B600040F40030386009E00021201D02F0B2F866
:104B700003E00098002102F03DF9054695B12E466C
:104B80002088DFF81093400509F108092CD5D4F8E6
:104B9000A400B0F5800F20D00DDCA0B1B0F5001F4F
:104BA0000FD115E0A26DD8F8001021F4E071114387
:104BB000C8F80010E4E7B0F5C00F13D0B0F5000F4F
:104BC00010D001250FE0386840F40030386009E06B
:104BD0000021201D02F07EF803E00098002102F081
:104BE00009F9054675B12E46208800052DD5D4F863
:104BF000A800B0F1007F21D00EDCA8B1B0F1807F19
:104C000010D116E0D4F8A420D9F8001021F46001E6
:104C10001143C9F80010E7E7B0F1407F13D0B0F1BD
:104C2000806F10D001250FE0386840F40030386004
:104C300009E00021201D02F04DF803E0009800215A
:104C400002F0D8F805466DB12E46206880011FD5C8
:104C5000A06CD8B110280FD0202812D0302815D041
:104C6000012514E0D4F8A820D9F8001021F0E06163
:104C70001143C9F80010E8E7386840F400303860A4
:104C800004E00221201D02F025F805466DB12E46F4
:104C90002088C0042BD5E06DB0F5005F20D00DDC7E
:104CA000A0B1B0F5805F0FD115E07A48A26C001F6B
:104CB000016821F0300111430160E9E7B0F5405F80
:104CC00013D0B0F5804F10D001250FE0386840F4C4
:104CD0000030386009E00021201D01F0FBFF03E0F7
:104CE0000098002102F086F8054685B12E462088FE
:104CF000800429D5206EB0F5403F23D010DC08B3E6
:104D0000B0F5803F14D0B0F5003F0FD115E0E26D53
:104D1000D8F8001021F4E0411143C8F80010E6E78C
:104D2000B0F5802F0ED0B0F5A02F0BD001250AE0F2
:104D30000121201D01F0CEFF03E00098012102F0C7
:104D400059F805468DB12E46208840042AD5D4F85E
:104D5000AC00B0F1405F23D010DC08B3B0F1805F4D
:104D600014D0B0F1005F0FD115E0226ED8F800101A
:104D700021F4E0211143C8F80010E5E7B0F1804FBD
:104D80000ED0B0F1A04F0BD001250AE00121201D6B
:104D900001F0A0FF03E00098012102F02BF8054686
:104DA0006DB12E46208800041FD5E06ED8B1B0F159
:104DB000805F0ED0B0F1005F10D0012514E0D4F870
:104DC000AC20D9F8001021F0E0411143C9F80010DF
:104DD000E8E7386840F40030386004E00121201D25
:104DE00001F078FF05466DB12E462068C0011ED542
:104DF000606CD0B101280ED0022811D0032814D045
:104E0000012513E0E26ED8F8001021F04051114363
:104E1000C8F80010E9E7386840F40030386004E072
:104E20000221201D01F056FF054685B12E4620685F
:104E3000DFF85CB04002ABF11C0B57D51648016897
:104E400041F480710160FFF7F9F982460EE01148E4
:104E5000626C001F016821F0030111430160E6E765
:104E6000FFF7ECF9A0EB0A0064283DD80A48006877
:104E7000C005F5D57DBBDFF81CA0B4F8B0200AF161
:104E8000200ADAF8001002F4407001F4407105E0E5
:104E90002C4402585044025800480258814211D014
:104EA000DAF80010DAF8002021F4407142F4803280
:104EB000CAF80020DAF8002022F48032CAF8002074
:104EC000CAF80010D4F8B000B0F5807F21D1FFF708
:104ED000B5F9019019E008E0FFF7B0F90199411A1E
:104EE00041F28830814210D903252E462078DFF820
:104EF00044A4C0073DD0A06F182838D026DC80B36A
:104F0000082829D0102825D12CE0DAF800008007E5
:104F1000E2D5D4F8B010C1F30120032858460DD0D3
:104F2000016821F47C510160B4F8B020DAF8001077
:104F3000C2F30B021143CAF80010D7E7FE4A036818
:104F400002EA111223F47C511143ECE720280ED021
:104F500028280CD001250BE00121201D01F0BAFE0C
:104F600004E004E00098012101F044FF05465DB132
:104F70002E46207880071ED5606F062819D2DFE8FC
:104F800000F0160C11161616A26FDAF8001021F0B8
:104F900038011143CAF80010EBE70121201D01F090
:104FA00099FE03E00098012101F024FF054675B148
:104FB00000E001252E46207840071FD5D4F8900048
:104FC000062819D2DFE800F0160C11161616626FCB
:104FD000DAF8001021F007011143CAF80010EAE7DF
:104FE0000121201D01F076FE03E00098012101F06F
:104FF00001FF05469DB100E001252E462078800680
:105000002BD5D4F88C00B0F1405F24D011DC10B364
:10501000B0F1805F15D0B0F1005F10D116E0D4F888
:105020009020D9F8001021F007011143C9F80010B1
:10503000E4E7B0F1804F0ED0B0F1A04F0BD00125C6
:105040000AE00021201D01F045FE03E00098022146
:1050500001F0D0FE05468DB12E46207840062BD5B6
:10506000D4F89800B0F5406F24D011DC10B3B0F53F
:10507000806F15D0B0F5006F10D116E0D4F88C20F9
:10508000DAF8001021F0E0411143CAF80010E4E71B
:10509000B0F5805F0ED0B0F5A05F0BD001250AE01F
:1050A0000021201D01F016FE03E00098022101F00E
:1050B000A1FE05468DB12E46207800062BD5D4F8EA
:1050C0009C00B0F5C04F24D011DC10B3B0F5005FE8
:1050D00015D0B0F5804F10D116E0D4F89820D9F84B
:1050E000001021F4E0511143C9F80010E4E7B0F5D5
:1050F000004F0ED0B0F5204F0BD001250AE0002163
:10510000201D01F0E7FD03E00098022101F072FE8E
:1051100005464DB12E46207800071ED5D4F88000F4
:10512000B0F5805F0AD00FE0D4F89C20D9F80010C9
:1051300021F460411143C9F80010ECE70098022106
:1051400001F058FE00B10126D4F88020DAF80010F2
:1051500021F440511143CAF800102078C00613D53D
:10516000D4F89400B0F5807F05D10098022101F0B9
:1051700041FE00B10126D4F89420D9F8001021F4A2
:1051800040711143C9F800102068000316D5D4F807
:10519000A00038B1B0F5803F09D0B0F5003F0BD08A
:1051A00001250AE00021201D01F094FD03E0009894
:1051B000022101F01FFE054685B12E4620684003FE
:1051C00022D5D4F88400B0F5801F11D0B0F5001FAF
:1051D00013D0B0F5401F15D0012514E0D4F8A0205D
:1051E000D9F8001021F440311143C9F80010E5E767
:1051F000386840F40030386004E00098012101F084
:10520000F9FD054655B12E462068C0031CD5E06C5B
:1052100070B1B0F5803F10D0012514E0D4F884209F
:10522000DAF8001021F440111143CAF80010EBE73E
:10523000386840F40030386004E00221201D01F09D
:1052400049FD0546CDB12E462068800005D5009861
:10525000022101F0CFFD00B10126206880031BD59B
:10526000E06FB8B1B0F5807F10D0B0F5007F11D0FD
:10527000B0F5407F0ED001250DE02E48E26C0838D5
:10528000016821F4803111430160DDE7386840F4A2
:1052900000303860F5B32E462068C00207D5226F73
:1052A000D8F8001021F000411143C8F80010206820
:1052B000C00008D5D4F8B420DBF8001021F48041F8
:1052C0001143CBF800102068800207D5A26ED8F8F1
:1052D000001021F080711143C8F8001020684000D0
:1052E0000CD5DBF8001021F40041CBF80010DBF8FE
:1052F0000010D4F8B8201143CBF800102068002823
:1053000007DA0C48226D0838016821F0405111433A
:10531000016000E014E02068000208D5D4F888207D
:10532000DAF8001021F440011143CAF8001086B1E8
:10533000012003E054440258CFFFFF00BDE8FC9F6A
:10534000E26FDAF8001021F440711143CAF800103E
:10535000A2E70020EDE700002DE9F05F04000F4612
:105360007ED0DFF83882D8F8000000F00F00B84295
:105370000CD2D8F8001021F00F013943C8F8001002
:10538000D8F8000000F00F00B84269D12078844DB1
:1053900040070AD52069296801F07001884204D9C4
:1053A000296821F070010143296020787C4E361D68
:1053B00000070AD56069316801F07001884204D99C
:1053C000316821F07001014331602078C0060AD5B0
:1053D000A069316801F4E061884204D9316821F4A0
:1053E000E061014331602078DFF8B4B180060BF151
:1053F000080B0CD5E1695846DBF8002002F070027A
:10540000914204D9026822F070020A4302602078B7
:1054100080070AD5E068296801F00F01884204D9A5
:10542000296821F00F01014329602078C0073ED090
:105430005B49A2682868183920F47060104328601E
:105440006068022818D0032819D00968012819D0EB
:10545000490700294ADADFF848A1AAF1080A00E062
:1054600044E0DAF8002022F007020243CAF80020E4
:10547000FEF7E4FE814612E009688903E9E709685E
:105480008901E6E7C905E4E7FEF7D8FEA0EB0901CC
:1054900041F28830814202D90320BDE8F09F616863
:1054A000DAF8000000F03800B0EBC10FECD1207842
:1054B00080070AD5E068296801F00F01884204D20C
:1054C000296821F00F0101432960D8F800104046F7
:1054D00001F00F01B9420BD9016821F00F013943E6
:1054E0000160006800F00F00B84201D00120D4E74D
:1054F000207840070AD52069296801F070018842A8
:1055000004D2296821F07001014329602078000746
:105510000AD56069316801F07001884204D23168AF
:1055200021F07001014331602078C0060AD5A069DE
:10553000316801F4E061884204D2316821F4E0610D
:1055400001433160207880060CD5E1695846DBF8CC
:10555000002002F07002914204D2026822F0700230
:105560000A43026000F06CF80E492A682B68C2F307
:10557000032203F00F038A5CC95C02F01F0201F0F2
:105580001F01D040084A20FA01F111600749086064
:1055900007480068BDE8F05FFEF78CBE00200052AF
:1055A00018440258E4860008200000201C00002057
:1055B0001400002030B500F043F80B4A0B490C4BA7
:1055C00015681468C5F3032204F00F048A5C095DB2
:1055D00002F01F0201F01F01D040064A20FA01F13B
:1055E00019601060084630BD18440258E48600086F
:1055F000200000201C00002000B5FFF7DBFF05495C
:105600000968054AC1F30211515C01F01F01C8404D
:1056100000BD00001C440258E486000800B5FFF7F6
:10562000C9FF05490968054AC1F30221515C01F02F
:105630001F01C84000BD00001C440258E486000859
:10564000454970B545480968434B103B11F0380295
:1056500008D00111082A03D0102A0BD0182A0BD029
:10566000084670BD19688906FBD51968C1F3C101E8
:10567000C84070BD3A4870BD3749374D18310C1DD0
:1056800024350A68096826682D6802F0030406F0CC
:105690000102C1F30511C5F3CC0515FB02F200EEC2
:1056A000102AB8EE400AE9B32F4ADFED2E0AB7EE12
:1056B000001A6CB1DFED2D1A012C01D0022C43D061
:1056C00002EE101A1068F8EE422A81EEA22A1EE0BD
:1056D0001C68A40611D51B6801EE901A1168C3F36B
:1056E000C103F8EE612AD84001EE900AC1F3080028
:1056F000F8EE611A81EEA22A0BE001EE901ADFEDBE
:105700001C2A00BFF8EE611A106882EEA12AC0F3CD
:10571000080001EE900AF8EE611A40EE201A31EE10
:10572000810A00E015E022EE000A1068C0F346206E
:10573000401C00EE900AF8EE600A80EE201ABCEEE3
:10574000C10A10EE100A70BD01EE901ADFED092AB1
:10575000D8E7002070BD0000104402580090D0032C
:1057600040787D0100000039304402580024744A1A
:105770000024744C20BCBE4B2DE9F05F04007CD0AB
:10578000FF4F2078FE4D1837DFF8F493103DC00727
:1057900048D0D9F80000396800F03800102815D03A
:1057A000182803D101F0030002280FD06068B0F57B
:1057B000803F12D010B1B0F5A02F18D0286820F487
:1057C00080302860286820F4802009E02868800361
:1057D00028D560680028D2D024E0286840F48030C2
:1057E0002860606888B1FEF729FD064609E0286850
:1057F00040F480202860F0E7FEF720FD801B64283D
:105800007ED828688003F7D50CE0FEF717FD064622
:1058100005E000BFFEF712FD801B6428F0D8286861
:105820008003F7D4207841F20308D54E0C3E800760
:1058300053D5D9F80000396810F038000ED0182878
:1058400001D188070AD0E068A8B3296821F01901BE
:1058500001432960FEF7F2FC82461BE028684007FE
:1058600002D5E06800288AD0FEF7E2FC40451BD84C
:105870002069402812D0316800E0CCE021F47C316E
:1058800041EA0030306028E0FEF7D8FCA0EB0A00C7
:105890000228B5D828684007F6D5E5E7306820F437
:1058A0007C3040F40030EDE7207C316821F0FE418F
:1058B00041EA0060E6E7FFE7286820F00100286081
:1058C000FEF7BCFC824605E0FEF7B8FCA0EB0A0040
:1058D000022895D828684007F6D42078C0065FD5FE
:1058E000D9F80000DFF898B2396800F03800ABF161
:1058F000040B082812D0182805D101F0030000E09D
:10590000EAE001280AD0E0690028286838D040F091
:1059100080002860FEF792FC824623E02868C005DC
:1059200023D5E069802876D11FE0206A202821D085
:10593000316821F0F84141EA8060306030E000BF1A
:1059400094F82010DBF8002022F07C5242EA01613A
:10595000CBF8001024E000BFFEF770FCA0EB0A00BB
:10596000022896D82868C005F6D5FEF761FC4045A8
:10597000E6D8DAE7306820F0F84040F08040DCE715
:1059800020F080002860FEF759FC064605E000BFC5
:10599000FEF754FC801B02289BD82868C005F7D46A
:1059A0002078000729D5764861696430002980464F
:1059B000016811D041F001010160FEF73FFC06468D
:1059C00005E000BFFEF73AFC801B0228C9D8D8F8D2
:1059D00000008007F6D510E021F001010160FEF71C
:1059E0002DFC064605E000BFFEF728FC801B0228C0
:1059F00072D8D8F800008007F6D42078800623D526
:105A0000A0690028286810D040F480502860FEF774
:105A100015FC064605E02CE1FEF710FC801B022871
:105A20005AD828688004F7D50EE020F4805028600A
:105A3000FEF704FC064604E0FEF700FC801B02288B
:105A40004AD828688004F7D4207840074FD5DFF87B
:105A50003481D8F8001041F48071C8F80010FEF7C6
:105A6000EDFB064605E000BFFEF7E8FB801B64285F
:105A700032D8D8F80000C005F6D5414EA06860368F
:105A800001280AD008B1052813D0306820F00100A1
:105A90003060306820F0040002E0306840F001001F
:105AA0003060A06841F2883A90B1FEF7C7FB8046AB
:105AB0000AE0306840F004003060EEE7FEF7BEFB1D
:105AC000A0EB0801514507D830688007F6D50EE0F5
:105AD000FEF7B4FB804607E084E000BFFEF7AEFBB4
